S01700004763634170706C69636174696F6E312E737265635B
S11300000C9434000C9451000C9451000C94510045
S11300100C9451000C9451000C9451000C94510018
S11300200C9451000C9451000C9451000C94510008
S11300300C9451000C9451000C9451000C945100F8
S11300400C9451000C9451000C9451000C945100E8
S11300500C9451000C9451000C9451000C945100D8
S11300600C9451000C94510011241FBECFEFD8E022
S1130070DEBFCDBF11E0A0E0B1E0E6EFF5E002C0E5
S113008005900D92A235B107D9F721E0A2E5B1E0C0
S113009001C01D92A335B207E1F70E94E7020C9458
S11300A0F9020C94000065B1982F9074492F50E028
S11300B05595479555954795559547955595479524
S11300C0982F9078292F30E0022E232F000C221F26
S11300D0330B000C221F331F962F997F492B242B9F
S11300E025B968B1982F9071492F50E055954795DF
S11300F05595479555954795982F9072292F30E03F
S1130100359527953595279535952795962F997F7C
S1130110492B242B28B99BB192609BB99BB1916068
S11301209BB925ED2A95F1F700009BB19E7F9BB901
S11301309BB19D7F9BB995ED9A95F1F7000065B150
S113014020E1829FC0011124AC01407455275595CC
S113015047955595479555954795559547959C01D0
S113016020783327022E232F000C221F330B000C80
S1130170221F331F362F397F432B242B25B948B137
S11301809C0120713327359527953595279535950D
S11301902795807299279595879595958795959537
S11301A08795942F997F292B822B88B98BB18260F4
S11301B08BB98BB181608BB985ED8A95F1F700001D
S11301C08BB18E7F8BB98BB18D7F8BB995ED9A9561
S11301D0F1F70000089565B1982F9074492F50E00D
S11301E055954795559547955595479555954795F3
S11301F0982F9078292F30E0022E232F000C221FF5
S1130200330B000C221F331F962F997F492B242B6D
S113021025B968B1982F9071492F50E055954795AD
S11302205595479555954795982F9072292F30E00D
S1130230359527953595279535952795962F997F4B
S1130240492B242B28B99BB191609BB9EFE9FFE0BE
S11302503197F1F700C000009BB19E7F9BB9EFE995
S1130260FFE03197F1F700C0000065B1F0E18F9F26
S1130270C0011124AC0140745527559547955595F7
S1130280479555954795559547959C012078332773
S1130290022E232F000C221F330B000C221F331FAE
S11302A0362F397F432B242B25B948B19C0120716B
S11302B0332735952795359527953595279580725C
S11302C09927959587959595879595958795942FD5
S11302D0997F292B822B88B98BB181608BB98FE9E7
S11302E09FE00197F1F700C000008BB18E7F8BB9BE
S11302F0EFE9FFE03197F1F700C000000895EF92B5
S1130300FF920F931F93CF93DF937C01862F90E08E
S1130310880F991F880F991F880F991F8064C0E068
S1130320D0E00DC0F701EC0FFD1F149101E0080FA0
S11303300E94EB00812F0E9453002196802FC83029
S1130340D10580F3DF91CF911F910F91FF90EF9032
S11303500895CF93DF938FE59AEE0197F1F700C0EC
S1130360000085B1897F85B988B1897F88B91BB8B8
S113037084B1866084B987B1866087B98AB18360A5
S11303808AB985B1897F85B988B1866088B98BB10E
S113039081608BB98FE99FE00197F1F700C00000FD
S11303A08BB18E7F8BB98FE99FE00197F1F700C085
S11303B0000085B1897F85B988B1866088B98BB121
S11303C081608BB98FE99FE00197F1F700C00000CD
S11303D08BB18E7F8BB98FE99FE00197F1F700C055
S11303E0000085B1897F85B988B1897F846088B927
S11303F08BB181608BB98FE99FE00197F1F700C061
S113040000008BB18E7F8BB98FE99FE00197F1F7E4
S113041000C0000088E20E94EB008CE00E94EB0028
S113042060E0C0E00AC0D1E0D60F8C2F90E08F5E70
S11304309E4F0E947F01C85F6D2FC034A0F3DF91EF
S1130440CF9108950F931F93CF93DF93CDB7DEB76A
S113045060970FB6F894DEBF0FBECDBF80E1E1E038
S1130460F1E0DE01119601900D928A95E1F715B83D
S11304708BB18C638BB9A0E07BC084B184B989B1A2
S1130480897F8AB964B14A2F50E080E890E00A2E4F
S113049002C0959587950A94E2F79C01207833274A
S11304A0F901F595E795F595E795F595E7959C019F
S11304B020743327359527953595279535952795B8
S11304C085FB332730F92E2B232B262B24B9B9B1E6
S11304D08C0100711127000F111F000F111F000F55
S11304E0111FFC01E470FF27EE0FFF1FEE0FFF1F2B
S11304F0EE0FFF1FBC0162707727660F771F660F30
S1130500771F660F771F9C0121703327220F331F3B
S1130510220F331F9B2F997F092B8870802B8E2BE2
S1130520682B262B2AB920E020C0622F70E088E0D7
S113053090E0022E02C0959587950A94E2F78B739A
S11305409927892B89F462957295707F7627607F4D
S1130550762781E090E08C0F9D1F680F791FFB01C7
S1130560E40FF51F808108C02F5F2430F0F2AF5FE5
S1130570A43008F482CF8FEF60960FB6F894DEBFF4
S11305800FBECDBFDF91CF911F910F910895CF93EF
S1130590DF93EC010E9422028F3F31F480935201D9
S11305A08093000180E010C090915201891309C02A
S11305B090910001891729F088838093000181E0DC
S11305C003C08093520180E0DF91CF910895CF93CF
S11305D0DF931F92CDB7DEB78FEF89830E94A90105
S11305E004C0CE0101960E94C70289818F3FC9F3DE
S10905F0FCCFF894FFCFDC
S11305F6FF3132334134353642373839432A3023D2
S113060644001F000000001F00001F101010101FE0
S113061600001F181818181F00001F1C1C1C1C1F84
S113062600001F1E1E1E1E1F00001F1F1F1F1F1F50
S11306360003070F1F0F070300181C1E1F1E1C189C
S10506460000AE
S9030000FC
