S021000054726162616A6F5F507261637469636F5F4E756D65726F5F322E7372656346
S11300000C9454000C9471000C9471000C947100C5
S11300100C9471000C9471000C9471000C94710098
S11300200C9471000C9471000C9471000C94710088
S11300300C9471000C9471000C9471000C94710078
S11300400C9471000C9471000C9471000C94710068
S11300500C9471000C9471000C9471000C94710058
S11300600C9471000C947100001F000000001F002C
S1130070001F101010101F00001F181818181F0060
S1130080001F1C1C1C1C1F00001F1E1E1E1E1F0008
S1130090001F1F1F1F1F1F0003070F1F0F07030051
S11300A0181C1E1F1E1C180011241FBECFEFD8E001
S11300B0DEBFCDBF11E0A0E0B1E0EAE7F6E002C0A8
S11300C005900D92A231B107D9F721E0A2E1B1E088
S11300D001C01D92A331B207E1F70E9411030C94F1
S11300E03B030C94000085B1857E85B98BB18C638C
S11300F08BB960E093C084B1857E84B98AB183747E
S11301008AB98AB18AB934B180E890E0062E02C077
S1130110959587950A94E2F7AC0140785527FA0142
S1130120F595E795F595E795F595E795AC01407458
S1130130552755954795559547955595479585FB6D
S1130140222720F94E2B422B357E242F232B24B932
S11301504AB19C0120713327220F331F220F331F12
S1130160220F331F342F3374232B2AB97AB1FC01A5
S1130170E470FF27EE0FFF1FEE0FFF1FEE0FFF1FB0
S1130180AC0142705527440F551F440F551F440FAF
S1130190551F9C0121703327220F331F220F331F59
S11301A088708E2B482B242B209527232AB990E086
S11301B032C089B1887029B1207230E03595279515
S11301C03595279535952795282B49B1407150E0F1
S11301D0559547955595479555954795242B352B1A
S11301E049B1447050E05595479555954795242B52
S11301F0352B48E050E0092E02C0559547950A94E6
S1130200E2F724233523232B29F4990F990F892FFF
S1130210860F08959F5F943060F26F5F643008F436
S11302206ACF8FEF0895CF93DF93EC010E947300A0
S11302308F3F31F4809312018093000180E010C05D
S113024090911201891309C090910001891729F036
S113025088838093000181E003C08093120180E0D1
S1130260DF91CF91089565B1982F9074492F50E094
S11302705595479555954795559547955595479562
S1130280982F9078292F30E0022E232F000C221F64
S1130290330B000C221F331F962F997F492B242BDD
S11302A025B968B1982F9071492F50E0559547951D
S11302B05595479555954795982F9072292F30E07D
S11302C0359527953595279535952795962F997FBB
S11302D0492B242B28B99BB192609BB99BB19160A7
S11302E09BB925ED2A95F1F700009BB19E7F9BB940
S11302F09BB19D7F9BB995ED9A95F1F7000065B18F
S113030020E1829FC0011124AC014074552755950A
S113031047955595479555954795559547959C010E
S113032020783327022E232F000C221F330B000CBE
S1130330221F331F362F397F432B242B25B948B175
S11303409C0120713327359527953595279535954B
S11303502795807299279595879595958795959575
S11303608795942F997F292B822B88B98BB1826032
S11303708BB98BB181608BB985ED8A95F1F700005B
S11303808BB18E7F8BB98BB18D7F8BB995ED9A959F
S1130390F1F70000089565B1982F9074492F50E04B
S11303A05595479555954795559547955595479531
S11303B0982F9078292F30E0022E232F000C221F33
S11303C0330B000C221F331F962F997F492B242BAC
S11303D025B968B1982F9071492F50E055954795EC
S11303E05595479555954795982F9072292F30E04C
S11303F0359527953595279535952795962F997F8A
S1130400492B242B28B99BB191609BB9EFE9FFE0FC
S11304103197F1F700C000009BB19E7F9BB9EFE9D3
S1130420FFE03197F1F700C0000065B1F0E18F9F64
S1130430C0011124AC014074552755954795559535
S1130440479555954795559547959C0120783327B1
S1130450022E232F000C221F330B000C221F331FEC
S1130460362F397F432B242B25B948B19C012071A9
S1130470332735952795359527953595279580729A
S11304809927959587959595879595958795942F13
S1130490997F292B822B88B98BB181608BB98FE925
S11304A09FE00197F1F700C000008BB18E7F8BB9FC
S11304B0EFE9FFE03197F1F700C0000008956230E2
S11304C031F0633031F0613029F4805C03C08C5E1C
S11304D001C08C5A80680E94CB010895EF92FF926C
S11304E00F931F93CF93DF937C01862F90E0880FA7
S11304F0991F880F991F880F991F8064C0E0D0E06E
S11305000DC0F701EC0FFD1F149101E0080F0E94CC
S1130510CB01812F0E9433012196802FC830D10551
S113052080F3DF91CF911F910F91FF90EF90089589
S1130530CF93DF938FE59AEE0197F1F700C00000A7
S113054085B1897F85B988B1897F88B91BB884B1A1
S1130550866084B987B1866087B98AB183608AB9B5
S113056085B1897F85B988B1866088B98BB181608E
S11305708BB98FE99FE00197F1F700C000008BB1C0
S11305808E7F8BB98FE99FE00197F1F700C00000DF
S113059085B1897F85B988B1866088B98BB181605E
S11305A08BB98FE99FE00197F1F700C000008BB190
S11305B08E7F8BB98FE99FE00197F1F700C00000AF
S11305C085B1897F85B988B1897F846088B98BB109
S11305D081608BB98FE99FE00197F1F700C00000BB
S11305E08BB18E7F8BB98FE99FE00197F1F700C043
S11305F0000088E20E94CB018CE00E94CB0160E005
S1130600C0E00AC0D1E0D60F8C2F90E088599F4FEC
S11306100E946E02C85F6D2FC034A0F3DF91CF91AA
S11306200895CF93DF931F92CDB7DEB78FEF898301
S11306300E9498022FEF81EE94E021508040904078
S1130640E1F700C0000060E080E00E945F02CE019C
S113065001960E9413018823D1F3E981E031B8F7B0
S1130660F0E0EF5FFE4F80810E94330160E080E0A4
S10D06700E945F02ECCFF894FFCF64
S113067AFF313437303235382A333639234142434D
S105068A440026
S9030000FC
