:100000000C9434000C9446000C9446000C9446006A
:100010000C9446000C9446000C9446000C94460048
:100020000C9446000C9446000C9446000C94460038
:100030000C9446000C9446000C9446000C94460028
:100040000C9446000C9446000C9446000C94460018
:100050000C9446000C9446000C9446000C94460008
:100060000C9446000C94460011241FBECFEFD8E03C
:10007000DEBFCDBF21E0A0E0B1E001C01D92A03005
:10008000B207E1F70E9448000C9479000C9400003C
:10009000E0E8F0E080818E7F8083808182648083CD
:1000A000E1E8F0E0808188618083808182608083E4
:1000B00084B1826084B98FE39CE990938700809338
:1000C000860087EE93E09093890080938800E7EAAA
:1000D000F1E63197F1F700C0000001968738F3E1AF
:1000E0009F0710F087EE93E090938900809388003B
:0600F000EECFF894FFCFF3
:00000001FF
