S00B00005450322E7372656343
S11300000C9454000C9471000C9471000C947100C5
S11300100C9471000C9471000C9471000C94710098
S11300200C9471000C9471000C9471000C94710088
S11300300C9471000C9471000C9471000C94710078
S11300400C9471000C9471000C9471000C94710068
S11300500C9471000C9471000C9471000C94710058
S11300600C9471000C947100001F000000001F002C
S1130070001F101010101F00001F181818181F0060
S1130080001F1C1C1C1C1F00001F1E1E1E1E1F0008
S1130090001F1F1F1F1F1F0003070F1F0F07030051
S11300A0181C1E1F1E1C180011241FBECFEFD8E001
S11300B0DEBFCDBF11E0A0E0B1E0E0E1F7E002C0B7
S11300C005900D92A231B107D9F721E0A2E1B1E088
S11300D001C01D92A331B207E1F70E9449030C94B9
S11300E086030C94000065B1982F9074492F50E05A
S11300F055954795559547955595479555954795E4
S1130100982F9078292F30E0022E232F000C221FE5
S1130110330B000C221F331F962F997F492B242B5E
S113012025B968B1982F9071492F50E0559547959E
S11301305595479555954795982F9072292F30E0FE
S1130140359527953595279535952795962F997F3C
S1130150492B242B28B99BB192609BB99BB1916028
S11301609BB925ED2A95F1F700009BB19E7F9BB9C1
S11301709BB19D7F9BB995ED9A95F1F7000065B110
S113018020E1829FC0011124AC014074552755958C
S113019047955595479555954795559547959C0190
S11301A020783327022E232F000C221F330B000C40
S11301B0221F331F362F397F432B242B25B948B1F7
S11301C09C012071332735952795359527953595CD
S11301D027958072992795958795959587959595F7
S11301E08795942F997F292B822B88B98BB18260B4
S11301F08BB98BB181608BB985ED8A95F1F70000DD
S11302008BB18E7F8BB98BB18D7F8BB995ED9A9520
S1130210F1F70000089565B1982F9074492F50E0CC
S113022055954795559547955595479555954795B2
S1130230982F9078292F30E0022E232F000C221FB4
S1130240330B000C221F331F962F997F492B242B2D
S113025025B968B1982F9071492F50E0559547956D
S11302605595479555954795982F9072292F30E0CD
S1130270359527953595279535952795962F997F0B
S1130280492B242B28B99BB191609BB9EFE9FFE07E
S11302903197F1F700C000009BB19E7F9BB9EFE955
S11302A0FFE03197F1F700C0000065B1F0E18F9FE6
S11302B0C0011124AC0140745527559547955595B7
S11302C0479555954795559547959C012078332733
S11302D0022E232F000C221F330B000C221F331F6E
S11302E0362F397F432B242B25B948B19C0120712B
S11302F0332735952795359527953595279580721C
S11303009927959587959595879595958795942F94
S1130310997F292B822B88B98BB181608BB98FE9A6
S11303209FE00197F1F700C000008BB18E7F8BB97D
S1130330EFE9FFE03197F1F700C00000089581E094
S11303400E940B010895623031F0633031F0613066
S113035029F4805C03C08C5E01C08C5A80680E94C2
S11303600B010895EF92FF920F931F93CF93DF93A6
S11303707C01862F90E0880F991F880F991F880FA2
S1130380991F8064C0E0D0E00DC0F701EC0FFD1FA1
S1130390149101E0080F0E940B01812F0E94730049
S11303A02196802FC830D10580F3DF91CF911F9122
S11303B00F91FF90EF900895CF93DF938FE59AEE1E
S11303C00197F1F700C0000085B1897F85B988B134
S11303D0897F88B91BB884B1866084B987B1866087
S11303E087B98AB183608AB985B1897F85B988B1B3
S11303F0866088B98BB181608BB98FE99FE00197E2
S1130400F1F700C000008BB18E7F8BB98FE99FE0BC
S11304100197F1F700C0000085B1897F85B988B1E3
S1130420866088B98BB181608BB98FE99FE00197B1
S1130430F1F700C000008BB18E7F8BB98FE99FE08C
S11304400197F1F700C0000085B1897F85B988B1B3
S1130450897F846088B98BB181608BB98FE99FE013
S11304600197F1F700C000008BB18E7F8BB98FE943
S11304709FE00197F1F700C0000088E20E940B01A1
S11304808CE00E940B0160E0C0E00AC0D1E0D60F0E
S11304908C2F90E088599F4F0E94B201C85F6D2F46
S11304A0C034A0F3DF91CF9108958EE00E940B0138
S11304B00895CF93DF9385B1867C85B98BB1827023
S11304C08C638BB9E0E0BDC084B1867C84B98AB109
S11304D082708C638AB9F4B180E890E00E2E02C079
S11304E0959587950A94E2F7AC0140785527559580
S11304F0479555954795559547959C012074332705
S113050035952795359527953595279585FB33277B
S113051030F95F2F567C452B242B232B24B9FAB1B9
S1130520EC01C071DD27CC0FDD1FCC0FDD1FCC0F1C
S1130530DD1FDC01A470BB27AA0FBB1FAA0FBB1FC2
S1130540AA0FBB1FAC0142705527440F551F440F1F
S1130550551F440F551F9C0121703327220F331F51
S1130560220F331F9F2F9670C92B88708C2B8A2BD8
S1130570482B242B2AB990E060C023B1207130E0CD
S1130580A901440F551F440F551F440F551F83B134
S11305908870282F30E0220F331F220F331F220FC1
S11305A0331F242B352B83B1682F617070E0AB01AE
S11305B0440F551F42955295507F5427407F54272E
S11305C0242B352B49B1407850E0559547955595E6
S11305D0479555954795242B352B89B18870282B41
S11305E049B1407250E05595479555954795242B50
S11305F0352B49B1407150E0559547955595479530
S1130600242B352B49B1447050E0559547955595A9
S11306104795242B352B48E050E0092E02C0559510
S113062047950A94E2F724233523232B29F4990FC1
S1130630990F892F8E0F09C09F5F943008F49DCFC6
S1130640EF5FE43008F440CF8FEFDF91CF9108954E
S1130650CF93DF93EC010E9459028F3F31F48093D2
S113066012018093000180E011C09091120189135E
S11306700DC090910001891729F0888380930001AF
S113068081E004C08093120180E000C0DF91CF912B
S11306900895CF93DF93CDB7DEB761970FB6F89483
S11306A0DEBF0FBECDBF80E1E1E0F1E0DE011296D6
S11306B001900D928A95E1F70E94DC0162E080E0EE
S11306C00E94A3010E94550203C081E30E947300AB
S11306D0CE0101960E9428038823B9F30E949F014A
S11306E08981E2E0F0E0EC0FFD1FE80FF11D80814D
S11306F00E9473002FEF85EA9EE0215080409040D5
S1130700E1F700C000000E949F01E2CFF894FFCF00
S1130710FF313233413435364237383943302A23B6
S105072044008F
S9030000FC
